:100000000C945F0C0C947C0C0C947C0C0C947C0C6D
:100010000C947C0C0C947C0C0C947C0C0C947C0C40
:100020000C947C0C0C947C0C0C947C0C0C947C0C30
:100030000C948A170C947C0C0C947C0C0C948A28DD
:100040000C945F150C947C0C0C94BB2F0C94FA153B
:100050000C947C0C0C947C0C0C94351A0C947C0C39
:100060000C947C0C0C947F150C94E5170C943518AB
:100070000C947C0C0C947C0C0C947C0C0C947C0CE0
:100080000C947C0C0C947C0C0C947C0CFA10FA10E4
:100090001D111D111D111D11FC1005111D110A113D
:1000A0000A111D111211FC100E111D111D11191133
:1000B0001B1119111D111D111D110E111D111D11E5
:1000C0001D11FC10FC1005110A110A111D1112114D
:1000D0007D3F443F443F8E3F8E3F4B3F4B3F933FDE
:1000E000933F933F933F933F933F933F933F7B3F98
:1000F0007D3F7D3F833F873F8A3F8D3F8D3F8D3FD3
:10010000933F8D3F4A3F4A3F933F933F933F933FF7
:10011000933F933F933F833F8A3FB641D541A042EF
:10012000DC42DC42B641D541A042DC42DC42DF4346
:10013000E343E3435F4463448144A744CF44ED4435
:10014000F34415457E45BC45BC45BC45BC457E4594
:10015000BC45BC45BC45BC453E5142516F51AD51BB
:10016000CA51CE512152E951055246524C52765253
:100170005E529A52B852E1520053215337531B1E1C
:10018000272D36394B4E636C7278878D939CB1B4B2
:10019000C6C9D2D8E1E40102030401030204040247
:1001A0000301040302012053564E3A203364727453
:1001B000782D76312E3100444154453A2032303189
:1001C000352D30372D30330054494D453A203132EA
:1001D0003A33363A353400454550523A20323133BD
:1001E0002D3200DD577A479C37EB76E676A3644ADA
:1001F00037BA3F5738514105030706060D05050379
:100200004F46464F4E00032D2D2D494E56040134C6
:10021000434801364348013843483130434831327E
:100220004348313443483136434805517569657454
:10023000416C61726D4E6F4B6579416C6C2020038F
:100240004F4646202B3D203A3D0343483143483238
:10025000434833434834064578706F20204578463C
:10026000696E6546696E6520204D656469756D43EC
:100270006F617273650152455441313233065050FB
:100280004D00202050504D31360050504D73696D57
:1002900003504F534E4547044F4646004B65797314
:1002A0004374726C426F74684F4E0020032D2D2DE5
:1002B000783E30783C307C787C663E30663C307CE2
:1002C000667C0841646400202020204D756C7469B0
:1002D000706C795265706C61636500022B3D2A3D3C
:1002E0003A3D034F46464F4E00527564456C655487
:1002F000687241696C052D2D2D0020617B780020EE
:10030000613E780020613C7800207C617C3E787CF6
:10031000617C3C78414E4400204F52002020584FD1
:10032000520020613D620020613E620020613C621B
:100330000020647D7800207C647C7D7854494D00E9
:100340000A53616665747900202020547261696ED9
:100350006572002020496E73742E205472696D42BC
:100360006565700020202020205B486170746963FF
:100370005D00205265736574002020202056617254
:10038000696F00202020205B506C61792054726BD3
:100390005D5B506C6179204274685D5B506C617983
:1003A0002056616C5D4261636B6C6967687400051F
:1003B000546D723100546D723200416C6C002054E7
:1003C000656C656D044270310042703200427033DA
:1003D0000057726E3157726E3243686565526174B0
:1003E000615469636B5369726E52696E67536369D6
:1003F00046526F6274436872705461646143726301
:100400006B416C726D042D2D2D0054426174546942
:100410006D65546D7232547800205278002041315D
:10042000002041320020416C740054687200426127
:100430007425466D6F64536174735370640044692E
:10044000737447416C7443656C6C43656C734261B3
:100450007474437572726D416800506F77724163B6
:100460006358416363594163635A48646700565354
:10047000706441312D0041322D00416C742D416C6E
:10048000742B52706D2B54312B0054322B0053704F
:10049000642B4473742B4375722B5077722B41631A
:1004A0006300546D7233037600204100206D2F737A
:1004B0002D00206B6D686D00204000202500206D10
:1004C00041006D4168570020032D2D2D59656C4F5B
:1004D0007267526564013C3E074E6F6E65002020D6
:1004E00048756200202020575348486967680448CF
:1004F0004D532044442E44032D2D2D4131004132D3
:100500000046415343656C05416C746900416C744D
:10051000692B566172696F4131002020413200041D
:100520004E756D734261727305204D656E75204581
:1005300078697420446F776E202020557052696767
:100540006874204C65667403494430494431494419
:1005500032544852525544454C4541494C47454117
:1005600054524E4353314353324353334353344332
:100570005335435336435337435338435339435327
:10058000414353424353434F6E65042D2D2D00527A
:10059000756400456C65005468720041696C0050D8
:1005A00031002050320020503300204D4158005B74
:1005B00043315D5B43325D5B43335D54726D525436
:1005C000726D4554726D5454726D4133504F5303E4
:1005D0004F4646414253544873544825544874008A
:1005E0005B4D454E555D085B455849545D00065BC3
:1005F0004D454E555D205748454E20444F4E4500D1
:10060000667265650044454C455445204D4F444550
:100610004C00436F7079696E67206D6F64656C2E56
:100620002E2E004D6F76696E67206D6F64656C2E9F
:100630002E2E004C6F6164696E67206D6F64656C6F
:100640002E2E2E004E616D650054696D6572004559
:100650002E4C696D69747300452E5472696D730078
:100660005472696D205374657000542D536F757208
:10067000636500542D5472696D00437472204265A5
:100680006570000150726F746F0050504D2066729B
:10069000616D65006D73005377697463680054720F
:1006A000696D73004661646520496E00466164654A
:1006B000204F7574002864656661756C74290006A6
:1006C000436865636B0A5472696D7300014D6F6412
:1006D00065004E6F2066726565206578706F210039
:1006E0004E6F2066726565206D69786572210049DC
:1006F0004E53455254204D495820004544495420FA
:100700004D4958200001536F757263650057656944
:10071000676874004578706F005369646500014F25
:100720006666736574005472696D004452657800A2
:100730004375727665004D6F6465005761726E692E
:100740006E67004F4646004D756C747078004465C6
:100750006C617920446E0044656C617920557000AD
:10076000536C6F772020446E00536C6F77202055B8
:1007700070004D495845520043560041046368617A
:100780006E6E656C000152616E67650001416C61BF
:10079000726D00557372446174610001426C616452
:1007A00065730053637265656E2000536F756E64E8
:1007B00000014C656E67746800436F6E74726173FC
:1007C0007400416C61726D730001426174746572F2
:1007D00079204C6F770001496E61637469766974A2
:1007E0007900014D656D6F7279204C6F7700015370
:1007F0006F756E64204F666600542D526576657283
:10080000736500014D696E7574650001436F756E07
:1008100074646F776E004261636B6C696768740023
:10082000014475726174696F6E0053706C61736816
:100830002073637265656E00542D5761726E696E28
:100840006700532D5761726E696E670054696D655C
:10085000205A6F6E650047505320436F6F72647368
:1008600000566172696F005278204368616E6E6550
:100870006C204F726400536C617665004D6F646547
:10088000062520536F75726365004D756C74697031
:100890006C6965720043616C005472696D2D202B88
:1008A0000042473A00065B4D454E555D20544F20AF
:1008B0005354415254000353455420535449434B1D
:1008C00053204D4944504F494E5400064D4F564514
:1008D00020535449434B532F504F545300416363AB
:1008E0003A004E4F204441544100544D311A544D6A
:1008F00032005448521A54482500544F5400546D45
:1009000072314C6174206D617806757300546D729C
:10091000314C6174206D696E06757300546D7231CF
:10092000204A697474657206757300546D69782085
:100930006D61780C6D730046726565205374616358
:100940006B0862005B4D454E555D20746F207265EB
:100950007365740050504D004348004D4F44454C62
:1009600000464D00454550524F4D206C6F77206D2D
:10097000656D00507265737320616E79206B6579C7
:1009800020746F20736B6970005468726F74746C9C
:1009900065206E6F742069646C6500416C61726DD6
:1009A000732044697361626C6564000850726573FA
:1009B0007320616E79204B65790042616420454562
:1009C00070726F6D204461746100466F726D617466
:1009D00074696E6720454550524F4D004545505251
:1009E0004F4D206F766572666C6F770006547269A2
:1009F0006D73203D3E204F666673657473005241EF
:100A000044494F20534554555000545241494E4596
:100A1000520056455253494F4E005357495443488C
:100A2000455300414E41530043414C4942524154C9
:100A3000494F4E004D4F44454C53454C005345548F
:100A4000555000464C49474854204D4F44450046B8
:100A50004C49474854204D4F4445530044522F457C
:100A600058504F004C494D49545300435552564538
:100A70005300435552564500435553544F4D205350
:100A80005749544348455300435553544F4D20460E
:100A9000554E4354494F4E530054454C454D4554D3
:100AA000525900014C696D6974005354415453000C
:100AB000444542554700496E766572742054687209
:100AC0003F004C61746974756465004C6F6E6769B2
:100AD0007475646500426174746572792043616C59
:100AE00069620001566F6C7461676500014375723D
:100AF00072656E74005741524E494E47004545504D
:100B0000524F4D005448524F54544C4500414C41B3
:100B1000524D5300535749544348004E2F410054FF
:100B20007970650000000000000000006F00000701
:100B30000007001830180C06087F7F7F0823130871
:100B4000646236495522500005030000001C224112
:100B5000000041221C0014083E081408083E080842
:100B60000050300000000808080800606000002005
:100B700010080402003E41413E0000427F400062F6
:100B80005149460041494936001814127F00274553
:100B90004539003E4949320001790503003649498B
:100BA00036000649291E0000363600000056360081
:100BB00000081422411414141414412214080002D1
:100BC0000151090606090906007E0909097E7F49C7
:100BD0004949363E414141227F4141221C7F4949DA
:100BE00049417F090909013E4149497A7F080808BE
:100BF0007F00417F41002040413F017F0814224196
:100C00007F404040407F020C027F7F0408107F3EFF
:100C10004141413E7F090909063E4151215E7F095C
:100C2000192946264949493201017F01013F4040C7
:100C3000403F1F2040201F3F4030403F63140814B6
:100C40006307087008076151494543007F4141002F
:100C500002040810200041417F0004020102044008
:100C600040404040000102040020545454787F4822
:100C70004444383844444420384444487F38545429
:100C80005418087E0901020C5252523E7F08040497
:100C90007800447D40002040443D007F10284400FF
:100CA00000417F40007C041804787C0804047838F4
:100CB000444444387C14141408081414187C7C0828
:100CC0000404084854545420043F4440203C40400D
:100CD000207C1C2040201C3C4020403C4428102804
:100CE000440C5050503C4464544C441008100800CC
:100CF0007F0000000041225428000808221C080838
:100D00001C22080800000000000000000000000095
:100D100000000000000000000000000000660076F7
:100D2000003E001E00000000000000000000000067
:100D300080018001800180018001800180018001AB
:100D40000000000000300078007800300000000053
:100D50000000000000600060006000600060006053
:100D6000006000600060006000000000F81FFC3FB1
:100D70000E70066006600E70FC3FF81F0000000059
:100D800018601C60FE7FFE7F0060006000000000B5
:100D90000000000018781C7C0E6E06678663CE612A
:100DA000FC60786000000000066006608661866175
:100DB0008661CE73FC3F781E000000008007C007EC
:100DC000E006700638061C06FE7FFE7F000000006D
:100DD0007E187E38667066606660E670C63F861F65
:100DE00000000000F81FFC3F8E71866186618E73E3
:100DF0001C3F181E0000000006000600867FC67F0C
:100E0000E60076003E001E0000000000781EFC3F59
:100E1000CE7386618661CE73FC3F781E00000000B1
:100E20007800FC00CE6186718639CE1DFC0FF80774
:100E300000000000300C781E781E300C000000000E
:100E400000000000E07FF07FB8019C018E018E0160
:100E50009C01B801F07FE07FFE7FFE7F86618661A6
:100E6000866186618661CE73FC3F781EF81FFC3F69
:100E70000E7006600660066006600E701C3818185A
:100E8000FE7FFE7F0660066006600E701C38381C10
:100E9000F00FE007FE7FFE7F8661866186618661D6
:100EA0008661866106600660FE7FFE7F86018601A0
:100EB000860186018601860106000600F81FFC3FB8
:100EC0000E7006608661866186618E719C7F983F98
:100ED000FE7FFE7F80018001800180018001800112
:100EE000FE7FFE7F0000000006600660FE7FFE7F42
:100EF0000660066000000000001800380070006006
:100F000006600670FE3FFE1F06000600FE7FFE7FA5
:100F10008001C003E007700E381C1C380E7006609C
:100F2000FE7FFE7F00600060006000600060006087
:100F300000600060FE7FFE7F1C003800F001F001C1
:100F400038001C00FE7FFE7FFE7FFE7F7000E00009
:100F5000C00180030007000EFE7FFE7FF81FFC3FEC
:100F60000E7006600660066006600E70FC3FF81F9B
:100F7000FE7FFE7F86018601860186018601CE0105
:100F8000FC007800F81FFC3F0E7006600666066ED7
:100F9000063C0E38FC7FF867FE7FFE7F86018601E7
:100FA0008607860F861DCE39FC7078607818FC386D
:100FB000CE7186618661866186618E731C3F181EC4
:100FC0000600060006000600FE7FFE7F0600060003
:100FD00006000600FE1FFE3F00700060006000601B
:100FE00000600070FE3FFE1FFE07FE0F001C003871
:100FF000007000700038001CFE0FFE07FE1FFE3F51
:1010000000700070003E003E00700070FE3FFE1F4A
:101010001E783E7C700EE007C003C003E007700E30
:101020003E7C1E787E00FE00C0018003007F007FB2
:101030008003C001FE007E000678067C066E06670F
:101040008663C661E66076603E601E600018003C04
:10105000607E6066606660666066E066C07F807F16
:10106000FE7FFE7F8061C061E06060606060E07074
:10107000C03F801F801FC03FE070606060606060A4
:101080006060607000380018801FC03FE0706060D2
:101090006060E060C0618061FE7FFE7F801FC03FB6
:1010A000E0766066606660666066E066C00780073E
:1010B00080018001F87FFC7F8E01860106000E0012
:1010C0001C001800E001F0033867186618661866FF
:1010D00018661876F83FF81FFE7FFE7F8001C0017A
:1010E000E00060006000E000C07F807F0000000042
:1010F00060606060E67FE67F0060006000000000E6
:10110000001800380070006060606070E63FE61F05
:1011100000000000FE7FFE7F0006000F801FC03928
:10112000E0706060000000000000000006600660E3
:10113000FE7FFE7F0060006000000000E07FE07F37
:101140006000E000C007C007E000E000C07F807FD3
:10115000E07FE07F8001C001E00060006000E0000F
:10116000C07F807F801FC03FE07060606060606013
:101170006060E070C03F801FE07FE07F6006600637
:10118000600660066006E007C00380018001C003BE
:10119000E007600660066006C0078007E07FE07F2A
:1011A000E07FE07F8001C001E00060006000E000BF
:1011B000C00180018061C063E06760666066606650
:1011C0006066607E003C001860006000F81FF83F19
:1011D000607060600060007000380018E01FE03F41
:1011E000007000600060007000380018E07FE07F51
:1011F000E007E00F001C0038007000700038001C91
:10120000E00FE007E01FE03F00700070003800389A
:1012100000700070E03FE01F6060E070C039801F28
:10122000000F000F801FC039E0706060E001E00334
:10123000006700660066006600660076E03FE01F1B
:10124000606060706078607C606E6067E063E06141
:10125000E0606060416C74697475646520200054BE
:10126000784261740054784261740054696D65007D
:101270004C6F636B002D2D2D2D0025005278004EF4
:10128000756D204D6F64657300506F7320486F6CEF
:101290006420004175746F74756E652000202046CF
:1012A0006C697020202000202053706F7274202001
:1012B00000202044726966742020004F66204C6F25
:1012C000697465720020204C616E6420202000202B
:1012D000436972636C65202000202052544C20200A
:1012E000202000204C6F6974657220200020477513
:1012F0006964656420200020204175746F202020DF
:1013000000416C7420486F6C64200020204163729F
:101310006F2020200053746162696C697A6500F760
:1013200050425B2637AF36AF3C9936410012080079
:1013300010381010103810000010440092004410B3
:10134000000000000044FE44000000104400920031
:10135000441000001044009200441000000044FEBD
:1013600044000000000010440092004410000010EF
:101370003810101038100000020202020000FF00B6
:101380000000FF00000000FF00000000000000FF60
:101390000100525353490000FF01000202FF010007
:1013A0000202FF0101FF00000000FF000100020235
:1013B000020200020202020003000300030303030F
:1013C000030303030303030303030303002F333265
:1013D000002F3134004469666600000000010104FA
:1013E00000000000000400793D00783D00707400AA
:1013F00070742700000003000000020000020000DB
:101400000000000000000000060102E2AEA1A6A458
:10141000A2C02F258122AF03010200040506071B8D
:1014200020FC04040404040484C48404E4F4E404F8
:1014300084C4C40404040404040404FCFF00000085
:10144000FCFE00FFFFFF80FFFFFF80FFFFFF0000AB
:10145000008080800000FFFF000000FFFFFFFFFF13
:10146000FFFFFFFFFFFFFFFFFFF8FCFF3F0F030041
:1014700000FF3F2020202127272F2F2F2B272F2F22
:101480002F2F2F2F27232020202020203F4080088F
:1014900004201002015F2D2E2C000101020A3C01E4
:1014A000010414500101081E6402020F287805058A
:1014B0001E32965350530080400000000000000090
:1014C000000000000000000000000000000000001C
:1014D000000000000000000000000000000000000C
:1014E00000000000000000000000000000000000FC
:1014F00000000000000000000000000000000000EC
:1015000000000000000000000000000000000000DB
:1015100000000000000000000000000000000000CB
:1015200000000000000000000000000000000000BB
:10153000000000000000000000000000000000FCAF
:10154000FCFCFCFCFCFCFC7C3C1C0C0400000000D3
:1015500080C0E0F0F8FCFCFCFCFCFCFCFC7C3C1CCF
:101560000C00000000000000FCFCFCFCFCFCFCFC8F
:10157000FCFCFCFCFCFCFCFCFCFCFCFCFCF8F8F0BF
:10158000F0E0E0C08000000000000000000000006B
:10159000000000FCFCFCFCFCFCFCFCFCFCFCFCFC7F
:1015A000FCFCFCFCFCFCFCFCFCFCFCF8F8F0F0E0B7
:1015B000C080000000000000000000000000007F6C
:1015C0003F1F0F070301000080C0E0F0F8FCFEFFA2
:1015D000FFFFFFFFFF7F3F1F0F0703010000000019
:1015E00000000000000000000303030303030303E3
:1015F00003030303030303030707070F0F1F3F7FC3
:10160000FFFFFFFFFFFFFEFCF8E08000000000008E
:1016100000000003030303030303030303030303A3
:101620000303030303030307070F1F7FFFFFFFFFEE
:10163000FFFFFFFCE00000000000000000000000D1
:1016400080C0E0F0F8FCFEFFFFFFFFFFFFFFFFFFA1
:10165000FFFFFFFFFEFEFCFCFCF8F8F0E0C000001E
:10166000000000000000000000000000000000007A
:10167000000000000000000000000000000000006A
:101680000001071FFFFFFFFFFFFFFFFEE00000005C
:10169000000000000000000000000000000000004A
:1016A00000000000000000008080C0F0FFFFFFFF8E
:1016B000FFFFFFFF3F0000000000000000000003EC
:1016C00003030303030303030303030303030303EA
:1016D0000303030307070F3FFFFFFFFFFFFFFFFCAD
:1016E000F0000000000000FFFFFFFFFFFFFFFFFF13
:1016F00000000000000000000000000000000000EA
:10170000000080F0FFFFFFFFFFFFFFFF1F00000052
:1017100000000000060E1E3E7EFEFEFEFEFEFEFEE9
:10172000FEFEFEFEFEFEFFFFFFFFFFFFFF7F3F3FCF
:101730001F0F030000000000000000000000000078
:101740000000000000000000000000000000000099
:101750000000008080C0E0F8FFFFFFFFFFFFFFFFF9
:101760001F000000000000FFFFFFFFFFFFFFFFFF63
:1017700000000000000080808080C0C0E0E0F0F841
:10178000FCFEFFFFFFFFFFFF7F1F070100000000BF
:1017900000000000F8F0E0C080000103070F1F3FC9
:1017A0007FFFFFFFFFFFFFFDF9F1E0C080000000B9
:1017B000000000000000000000000000000000FF2A
:1017C000FFFFFFFFFFFFFFFFFFFFFFFFFFFFFFFF29
:1017D000FFFFFFFFFFFFFF7F7F3F3F1F0F0703005C
:1017E00000000000000000FFFFFFFFFFFFFFFFFF02
:1017F000FFFFFFFFFFFFFFFFFFFFFF7F7F7F3F3FF9
:101800003F1F1F0F07030100000000000000000041
:1018100000000000FFFFFFFFFFFFFEFCF8F0E0C04C
:1018200080000103070F1F3F7FFFFFFFFFFFFEFC4C
:10183000F8F0E0C0800000000000000000000000A0
:101840000000000000000000000000000000000098
:101850000000000000000000000000000000000088
:101860000000000000000000000000000000000078
:101870000000000000000000000000000000000068
:101880000000000000000000000000000000000058
:101890000000000000000000000000000000000048
:1018A0000000000000000000000000000000000038
:1018B000000000000000000000535045000011240B
:1018C0001FBECFEFD0E1DEBFCDBF11E0A0E0B1E0A1
:1018D000E4E0F9EF02C005900D92A631B107D9F707
:1018E0001DE0A6E1B1E001C01D92AE33B107E1F702
:1018F0000E94926F0C94807C0C9400008E309105B5
:101900006CF4FC01EE0FFF1FE80FF91FEA5FF34FC5
:101910008081882309F455C081E0089582319105C2
:1019200039F1833191058CF48F30910561F180316B
:10193000910524F48E30910551F51DC0803191053B
:1019400081F18131910519F535C08431910569F036
:10195000843191053CF08531910549F1863191053D
:10196000B1F42BC081B184702AC083B3807827C0C2
:101970008091630006C08091630086958695869568
:10198000809581701CC08091630083FD02C080E05F
:1019900016C081B190E026E0969587952A95E1F7EB
:1019A000F0CF81B18295869586958370E9CF81B11C
:1019B000807105C083B3807402C081B180728111CF
:1019C00081E0089580911601882341F480911701E8
:1019D000882321F480911901882311F084E105C046
:1019E00080913C0D882321F0815080933C0D08C0EC
:1019F0008091630090E096958795817080933D0D6E
:101A000080913D0D0895282F9091610195FF05C0AB
:101A1000823018F084E180933F05892F88718830E7
:101A200049F0882319F4222329F408958831E9F430
:101A30002330D8F080916B018295880F807E859548
:101A40008595859585958595992787FD9095FC01C8
:101A5000EE0FFF1FEE0FFF1FE80FF91FE20FF11D42
:101A6000EC55FB4EE491E0931601089590916701C7
:101A7000EEE7F1E0E90FF11DE4914E2F50E024E094
:101A800030E0281B3109220F331F02C055954795BE
:101A90002A95E2F74370842F8F5F0895E82F8823FB
:101AA000D9F087FF07C0863E1CF080E68E1B0895A4
:101AB000E19504C08B3114F4805C0895E5321CF488
:101AC0008E2F8B5E0895E9323CF4FF27E7FDF095F9
:101AD000E059FB4E8491089580E208959DE0899F2E
:101AE000900111242C503C4FC9010895282F30E05B
:101AF000220F331F220F331F2B503D4FC901089572
:101B000099E0899F900111242B573E4FC9010895F8
:101B100095E0899F900111242B553D4FC9010895EF
:101B2000882319F440E050E013C0282F30E0F90179
:101B3000E45DFC4F8081482F552747FD5095C90132
:101B4000880F991F880F991F820F931F480F591FE5
:101B50009A012B5C3C4FC9010895FF920F931F938C
:101B6000182F0E94900D082FF92E812F8F5F0E9451
:101B7000900D801B80FF02C090E003C086958F5FB0
:101B800091E0602F7F2D1F910F91FF90089593E0BA
:101B9000899F9001112423563C4FC9010895863036
:101BA00010F480E00895893010F481E008958C30BD
:101BB00010F482E008958E3010F084E0089583E000
:101BC0000895982F83393CF4282F332727FD30952B
:101BD0002F573F4F0FC087303CF485E098029001AB
:101BE00011242B5C3D4F06C08AE09802900111241D
:101BF0002E5E3D4FC9010895EFE1F1E020E030E0B5
:101C000081919191280F391F81E0E733F807C1F7DF
:101C1000C9010895292F332727FD30952227330F37
:101C2000221F3327AC01421B530B280F391F220FF1
:101C3000331F55954795240F351FA3E055954795BC
:101C4000AA95E1F7240F351FC9010895992787FD4B
:101C500090950E940A0E08958F929F92AF92BF9224
:101C6000CF92DF92EF92FF920F931F935C01862F2A
:101C70000E94260E4C01CC24DD24C601B501A6012C
:101C800095010E94BF7B940140E050E00E94BF7B21
:101C9000672F782F892F9927A60195010E94BF7B76
:101CA0007B018C017CE016950795F794E7947A9573
:101CB000D1F760E071E06819790980E090E00E9456
:101CC000BF7B9B01AC0120583F4F4F4F5F4F2E0D04
:101CD0003F1D401F511F232F342F452F5527C9016A
:101CE0001F910F91FF90EF90DF90CF90BF90AF903A
:101CF0009F908F90089529E230E0A901849F900180
:101D0000859F300D949F300D11243595279535957D
:101D10002795492F552747FD50954427550F441FB8
:101D20005527841B950BF6E095958795FA95E1F775
:101D3000281B390B241B350BC9010895992787FDF2
:101D400090950E947B0E08954F925F926F927F92C2
:101D50008F929F92AF92BF92CF92DF92EF92FF92BB
:101D60000F931F93CF93DF936C01862F0E94AD0DCD
:101D7000EB0120E034E0C20ED31ED7FC08C030E0F7
:101D8000C31638E0D30654F0C80FD11D21978881BF
:101D9000992787FD9095982F882772C0992381F104
:101DA000AA24BB24EE24FF2400E090E02C01089438
:101DB000410851083EEF632E3FEF732E680E791EE7
:101DC0004E01880E991E16C0E615F70519F480E03D
:101DD00098E007C0E80DF91D80810E949E0E80509A
:101DE0009C4F8C159D0518F057017C0122C00F5F98
:101DF00057017C01E02FF0E0E415F5052CF319C044
:101E0000682F70E06150704080E098E00E94FE7B97
:101E10009B01C6010E94EA7B062F862F90E0829FDD
:101E20005001839FB00C929FB00C11247501E20EFB
:101E3000F31EFE01E00FF11D0081112707FD109533
:101E4000CA18DB08B60180E090E0982F872F762F24
:101E500066272181332727FD3095201B310B44272E
:101E600037FD4095542F0E94BF7BEA18FB0897016D
:101E700040E050E00E94337C902F8827820F931F10
:101E800069E170E00E94FE7BCB01DF91CF911F9151
:101E90000F91FF90EF90DF90CF90BF90AF909F9009
:101EA0008F907F906F905F904F9008959C0163306A
:101EB000B9F064303CF4613061F062306CF4662358
:101EC000A9F121C06530B1F0653084F06630D9F4F5
:101ED00014C097FF2BC025C01816190614F126C090
:101EE00097FF24C0309521953F4F20C01816190642
:101EF000DCF017C097FF15C003C018161906A4F030
:101F000020E03CEF13C067FF06C0309521953F4F9E
:101F100086E0861B682F6750C9010E94A40E9C01B1
:101F200005C020E030E002C020E034E0C90108959F
:101F30009C0175E0359527957A95E1F7280F391FB3
:101F4000AC01452F550F550B4595240F351F880FB4
:101F5000892F881F990B281B390BC90108959C01F3
:101F6000220F232F221F330B280F391FE5E09595F1
:101F70008795EA95E1F7281B390BC901089529E1F6
:101F800030E0AC01429FC001439F900D529F900DE5
:101F90001124892F990F990B08957F928F929F9208
:101FA000AF92BF92CF92DF92EF92FF920F931F9367
:101FB000CF93DF93782E7A018B010E94880D4C011C
:101FC000FC0183812481922F9F73880F991F880FB2
:101FD000991F95958795959587950E94980FEC0187
:101FE000F40181818C590E949E0E5C01F401808174
:101FF00084560E949E0E6C01C5013A2D292FCA15E8
:10200000DB051CF4CE013C2F292F832F922FEC01EE
:10201000CC15DD050CF4E601F0E0EF16F0E0FF066C
:10202000FCEF0F07FFEF1F07ECF080E0E81680E001
:10203000F80684E0080780E0180734F0E12CF12C62
:1020400094E0092F112D0AC0E114F10401051105D6
:10205000E9F11E141F041006110654F495012C1BFF
:102060003D0B09C0E12CF12C8CEF082F8FEF182FBE
:102070009E012C193D09B901882777FD8095982F7D
:10208000A80197010E94BF7B9B01AC01222757FD4D
:102090002395332744275527E22EFF24E7FCF094AD
:1020A0000F2D1F2D6E197F09800B910BBC019927F5
:1020B00077FD9095892F332727FD3095C20FD31FC9
:1020C0007595679575956795C60FD71FCE01AC16A8
:1020D000BD060CF4C5019C018C159D050CF4960100
:1020E000F401848187FF03C0309521953F4FE72D90
:1020F000F0E0E559FB4F8081803819F00E949E0E78
:102100009C01C901DF91CF911F910F91FF90EF903A
:10211000DF90CF90BF90AF909F908F907F90089569
:102120001F93162F0E946E0DFC01A12FB0E0248199
:10213000332727FD3095CD01880F991F02C03595B3
:1021400027958A95E2F723703070AE0FBF1F8C91F0
:10215000992787FD9095880F991F880F991F280F41
:10216000391FC9011F910895FF920F931F93182FD4
:10217000F62E00E0112391F0812F6F2D0E94901018
:1021800021E0853F920754F0282F255F211708F0A2
:102190002F5F0F5F122F053069F710E0812F1F911D
:1021A0000F91FF9008951F93162F0E94B410612F76
:1021B0000E9490101F9108958A3051F08B3020F4C6
:1021C0008450823038F404C0893121F484EB0895BE
:1021D00084E608958FEF089590E0FC013297E23293
:1021E000F10558F5EA5BFF4FEE0FFF1F0590F491E4
:1021F000E02D099483E00AC070E0A3E0660F771F2A
:10220000AA95E1F7645F714019C082E3689FB0014D
:10221000112414C070E06E51704010C070E0660F61
:10222000771F0CC070E0E3E0660F771FEA95E1F7D7
:1022300005C085E0EBCF84E1E9CF70E0CB010895E4
:10224000FF920F931F938C01FC0182818F700E947B
:10225000CF0DF80190816181882339F46058892F6E
:102260008A530E94EC109C010FC0B6ECFB2EF90EB5
:1022700060588F2D0E94EC108C018F2D60E80E9419
:10228000EC109801281B390BC9011F910F91FF9089
:1022900008959F92AF92BF92CF92DF92EF92FF92FA
:1022A0000F931F93CF93DF93982E882309F4CBC00D
:1022B000992787FD909597FF03C0909581959F4F33
:1022C000863139F18A3030F490E00D960E947E0C10
:1022D000482F66C1282F2A50C22FD0E051E0A52EEA
:1022E000B12C022E02C0AA0CBB1C0A94E2F780910A
:1022F0001D0590911E058A219B21892B61F08091FB
:102300001F059091200540E08A219B21892B09F42B
:1023100047C141E045C180911D0590911E058A2964
:102320009B2990931E0580931D05822F0E94C70D47
:102330007C01DC0112968C91982F92959F708F7082
:1023400049F0992309F43DC1892F0E94491188233E
:1023500009F037C1CC0FDD1FCF5DDA4F80E090E888
:10236000998388833AC1F70180810E944911182F0F
:10237000D70111968C910E944911282FF701828173
:102380008F7090E08630910519F0079761F404C0D2
:10239000112309F422C103C0112309F0ECC0222348
:1023A00009F0E9C01AC140E0121709F0E4C0EBC01F
:1023B000F4E0CF1661F440E0CC0FDD1FCF5DDA4FC3
:1023C00088819981181619060CF4DDC0D4C0D70194
:1023D0008C9181500E9478138C01B2E0CB1619F5D4
:1023E000F701818181500E9478139C01D7011296D8
:1023F0008C918F7090E08930910519F00A9769F4FB
:1024000006C040E00217130709F0BDC0B4C040E0A9
:10241000201731070CF0B7C0AEC040E00217130719
:102420000CF0B1C0A8C0F701D080FAE3FD1504F5A7
:102430008091500C882349F42DE32D1534F440E0AD
:1024400019140CF4B1C041E0AFC0C7010E942011C3
:10245000BC01CC2091F4ED2DE254EB3070F4F0E0AF
:10246000E051F34FD70111968C918058808305C0BD
:10247000F70181810E949E0EBC01D70112968C91BA
:102480008F7090E083309105F9F08430910534F439
:102490008130910549F00297A9F510C0843091056B
:1024A000C9F0059779F522C040E0061B170B015FC4
:1024B0001F4F0F31110508F066C05DC040E0601786
:1024C00071070CF060C057C040E0061717070CF00A
:1024D0005AC051C040E0C80117FF03C090958195D4
:1024E0009F4F681779070CF04EC045C040E0C80107
:1024F00017FF03C0909581959F4F861797070CF0A3
:1025000042C039C0FE01EE0FFF1FEF5DFA4F808120
:1025100091818050904811F411830083FE01EE0FE9
:10252000FF1FEF5DFA4F808191819801281B390BC5
:10253000F70182818F708C3061F477FD05C040E037
:102540002617370704F10FC040E062177307DCF06D
:102550000AC040E0C90137FF03C0909581959F4FA5
:102560008617970784F041E0CC0FDD1FCF5DDA4F6F
:102570001983088301C041E080911F0590912005D7
:102580008A299B2909C020911F0530912005C5018A
:1025900080959095822393239093200580931F0527
:1025A000191414F081E04827842FDF91CF911F91F7
:1025B0000F91FF90EF90DF90CF90BF90AF909F90E2
:1025C0000895D70112968C918F700E94CF0DC82E5E
:1025D000B1E08B1709F0ECCEC6CE40E0D4CF1F930C
:1025E000CF93DF93C6E0D4E011E08881882349F0DF
:1025F0000E944911882329F0812FDF91CF911F91EB
:1026000008951F5F2D96153081F710E0F5CFAF923A
:10261000BF92DF92EF92FF920F931F93CF93DF93BE
:10262000F090390509E0DD24C8E0D0E061E0A62E95
:10263000B12C2F2D30E0043048F410E023703070BE
:102640002C173D0709F411E0EE2411C02197C501B4
:102650000C2E02C0880F991F0A94E2F72196E82EEB
:1026600010E090E082239323892B09F011E0802F62
:102670000E944911181791F0093019F4882331F498
:1026800006C0882319F4D02ED19401C0D02EEE209C
:1026900011F0FE2403C08CEFF822FC2A0150219790
:1026A000002339F6F0923905F8948091CD04909189
:1026B000CE04789420913A0D30913B0D821B930B00
:1026C0000B9708F0DD24F8948091CD049091CE040E
:1026D000789490933B0D80933A0D8D2DDF91CF919F
:1026E0001F910F91FF90EF90DF90BF90AF900895F2
:1026F000982F873038F4E82FF0E0EE0FFF1FE153FA
:10270000FB4F1EC1873009F41EC18B3008F41EC177
:102710008F3078F49B5080919E06692F0E94D310D1
:1027200063E0880F991F6A95E1F70E94980FBC013A
:102730000FC18F3071F48EE090E00E947E0C8823F0
:1027400081F48FE090E00E947E0C882309F0FEC0A7
:10275000FAC0823248F48C500E944911882309F053
:10276000F2C060E07CEFF4C08A32A8F4A82FB0E099
:10277000FD01EE0FFF1FE556F94F60817181873231
:1027800008F081C0AA0FBB1FA45FBE4F8D919C9122
:10279000681B790B78C08A3338F4E82FF0E0EE0F2D
:1027A000FF1FE755FB4FCCC08A3319F480913C05DD
:1027B000BCC08D3388F490E0CB97FC0123E0EE0F92
:1027C000FF1F2A95E1F7880F991FE80FF91FE95BB2
:1027D000FA4F67817085BCC08D3319F48091610C0C
:1027E000A4C08E3319F480915D0C9FC0813468F4CD
:1027F00090E0CF97FC01EE0FFF1FEE0FFF1FE80FD9
:10280000F91FED5AF34F808190C0813429F4609113
:10281000850C7091860C9CC0823429F460916B0CFD
:1028200070916C0C95C0833429F460916D0C70919B
:102830006E0C8EC0843429F46091690C70916A0C1E
:1028400087C0853429F460916F0C7091700C80C042
:10285000863429F46091870C7091880C79C0873494
:1028600029F46091C70C7091C80C72C0883429F4A7
:102870006091670C7091680C6BC0893439F4809159
:10288000B40C682F70E0660F771F62C08A3429F499
:102890006091CD0C7091CE0C5BC08B3429F46091AB
:1028A000D70C7091D80C54C08C3429F46091B50CBD
:1028B0007091B60C4DC08D3429F46091CF0C70919D
:1028C000D00C46C08E3429F46091D30C7091D40C96
:1028D0003FC08F3429F46091AD0C7091AE0C38C0BC
:1028E000803529F46091AF0C7091B00C31C0813506
:1028F00029F46091B10C7091B20C2AC0823529F490
:1029000060918D0C70918E0C23C0833529F46091F9
:10291000C50C7091C60C1CC0843519F48091540C00
:1029200004C0853529F48091590C682F70E010C0DF
:102930008F3560F4E82FF0E0EE0FFF1FEF5CF34FF0
:102940006081718105C060E074E002C060E070E009
:10295000CB010895809166012AEF829FC001112466
:10296000880F991F90933E0580933D050895E7E1F8
:10297000F4E1E80FF11DE491F0E0EE0FFF1FE75DD9
:10298000F24F20813181C90108950E94B7149C0142
:102990008091820187FF03C0309521953F4FC90187
:1029A00008950F931F9300E010E0812F0E94B71449
:1029B0009695090F1F5F1430C1F710E1812F0E9417
:1029C0007813892F990F990B85958595080F1F5FAF
:1029D0001731A1F7802F1F910F9108959091CD0489
:1029E0008091390D891789F19093390D0E94D11486
:1029F000982F8091B605981761F09093B6051092C4
:102A0000B5051092B40580914F0181FF02C00E946C
:102A1000AA1480914F01843061F080913D0590911E
:102A20003E05892B31F49091790692959695917097
:102A300001C091E080913F05882311F081E0982743
:102A4000992311F0C79A0895C7980895E9E2FDE027
:102A500040E0842F806487B9369A3699FECF24B13E
:102A600035B1369A3699FECF84B195B1820F931F56
:102A7000819391934F5F483061F7089590E0FC0196
:102A8000EE0FFF1FDC0123E0AA0FBB1F2A95E1F721
:102A9000AE0FBF1FA95BBA4F16961C921697E80F90
:102AA000F91FE458FE4F908181818F7017969C9397
:102AB000179718968C93189719961C9208957894E6
:102AC0001F920F920FB60F9211248F938091F006F0
:102AD0008F5F8093F0068F910F900FBE0F901F9025
:102AE00018954091F00622B78091F0064817C9F773
:102AF000942F80E030E0282B392BC90108951F92D4
:102B00000F920FB60F9211242F933F934F935F9321
:102B10006F937F938F939F93AF93BF93CF93DF93E5
:102B2000EF93FF93C0918000D091810080917D0050
:102B30008F7D80937D00789480910E0D90910F0D84
:102B40009E01281B390B36952795C901815A9F4054
:102B50008F5D9E4220F481E08093EF062EC040916D
:102B6000EF06842F8150883040F5C901815293408F
:102B70008757954000F5E42FF0E0EE0FFF1FE3527A
:102B8000F94F2C5D354080916801992787FD90951C
:102B90000A96BC01269FC001279F900D369F900D7D
:102BA00011246AE070E00E94FE7B718360834F5FB6
:102BB0004093EF0602C01092EF06D0930F0DC09322
:102BC0000E0DF89480917D00806280937D00FF91CE
:102BD000EF91DF91CF91BF91AF919F918F917F91B5
:102BE0006F915F914F913F912F910F900FBE0F907A
:102BF0001F9018951F920F920FB60F9211248F936A
:102C0000EF93FF93E0914F0CEE2349F0E150E093F6
:102C10004F0CF0E0ED5BF34F80818CB901C055980B
:102C2000FF91EF918F910F900FBE0F901F9018950D
:102C30007F928F929F92AF92BF92CF92DF92EF924C
:102C4000FF920F931F93CF93DF93782E8091820191
:102C500085FD04C0812C24E0922E03C0812C95E0D8
:102C6000992E772029F486EFA82E86E0B82E07C08B
:102C70000EE3A02E07E0B02E81E0781611F088E078
:102C800001C080E1D0908101D594D594D594D5949C
:102C9000DD0CD80E9091830184E69802E0011124A6
:102CA000C85ADD4F6091350491E0791611F0CC24BB
:102CB00003C018EFC12ECD0C88EC9FEA8C1B9D0B36
:102CC0007C0100E010E0772767FD7095872F972F34
:102CD00028EE33E040E050E00E94BF7BE60EF71E96
:102CE000081F191F44275527481959092AC09A0156
:102CF000EC2DF0E0EE0FFF1FE352FB4F0190F0814F
:102D0000E02DE417F50734F0E815F90514F0940107
:102D100001C09F012854344FC901AA2797FDA095EF
:102D2000BA2FE81AF90A0A0B1B0BF501D183C083ED
:102D30002C1B3D0B3383228384E090E0A80EB91E48
:102D4000C394CD14A0F2F501C193D19390E0E9169C
:102D500090E0F90691E0090790E019073CF0AFEF29
:102D6000EA2EAFEFFA2E012D112D0FC088E2E816E2
:102D700083E2F80680E0080780E0180734F478E280
:102D8000E72E73E2F72E012D112D772061F4C70194
:102D9000885E93409183808386EF96E09093040150
:102DA0008093030109C0C701F182E082885E9340ED
:102DB0009093F5068093F40613821282DF91CF91EF
:102DC0001F910F91FF90EF90DF90CF90BF90AF9049
:102DD0009F908F907F900895EDE7F0E080818F7D48
:102DE0008083179AAAE8B0E01C9210928B008AE0C8
:102DF0008C93808188618083089590918101977080
:102E00008091F306811194E080910201891709F401
:102E100063C0909302011EBC1DBC1CBC87B7837CA1
:102E200087BF80917D008E7F80937D008CE386BF7D
:102E30008FE380937C00913019F0923081F51CC0B3
:102E400080E49CE99BBD8ABD87B7806187BF1FBCBA
:102E50008AE08EBD81E00E94181680E593EC909385
:102E600087008093860088E893E1909385008093A3
:102E700084000E94EC1630C082E00E94181680E5A3
:102E800093EC909387008093860088E893E1909379
:102E90008500809384000E94EC16C0981DC080912C
:102EA0007D00857E80937D0017981F9A10928A007E
:102EB00010928B0082E880938A0080917D0080626E
:102EC00080937D0080EE9BEA9BBD8ABD87B78061C1
:102ED00087BF1FBC8AE08EBD809182018295817080
:102EE000809386070E94711520913504332727FDB2
:102EF000309543E0220F331F4A95E1F7285B3E4FA0
:102F0000280F391F3093F2062093F10680E00E94CB
:102F1000181608951F920F920FB60F9211242F9337
:102F20003F934F935F936F937F938F939F93AF9351
:102F3000BF93EF93FF939CB5E0910301F0910401DF
:102F4000208131812115310561F488EE93E09BBD2C
:102F50008ABD0E94FD168091690482608093690495
:102F600023C080910201843061F08091860788231C
:102F700021F0C09A1092860704C0C09881E0809327
:102F800086073BBD2ABD3296F0930401E09303010E
:102F900080916204891710F4909362048091630415
:102FA000981710F490936304FF91EF91BF91AF9144
:102FB0009F918F917F916F915F914F913F912F9151
:102FC0000F900FBE0F901F9018951F920F920FB683
:102FD0000F9211248F939F93AF93BF93EF93FF931F
:102FE00080910D0D882321F01F9A10920D0D04C0C1
:102FF0001F9881E080930D0DA0911201B0911301F3
:10300000FD01819191919093870080938600F093C8
:103010001301E09312018091F4069091F5069093CC
:1030200085008093840012968D919C911397892B33
:1030300061F48EE397E090931301809312018091E5
:1030400082018295817080930D0D80916904826068
:1030500080936904FF91EF91BF91AF919F918F9100
:103060000F900FBE0F901F9018951F920F920FB6E2
:103070000F9211242F933F934F935F936F937F93FE
:103080008F939F93AF93BF93EF93FF937894909117
:103090000201809181018770981729F0923031F4F4
:1030A0000E94FD1603C0892F0E941816FF91EF9110
:1030B000BF91AF919F918F917F916F915F914F9150
:1030C0003F912F910F900FBE0F901F9018951F9357
:1030D00010919A07115010939A0780E00E94030DF7
:1030E00010929C07A12FB0E0FD01EA56F84F8081B5
:1030F00080939B07AA0FBB1FA457B84FED91FC917B
:103100008EEB09951F9108959C01E0919A07F0E0DC
:10311000EE0FFF1FE457F84F918380838FEBF90187
:10312000099580E00E94030D08956091050D0E94AD
:10313000A40E0895EF92FF920F931F93CF93DF9306
:10314000F82E8091050D0E94AD0D482FE92EEB0160
:10315000F81618F020E030E040C00F2D10E0682F86
:103160006695C801E5E0880F991FEA95E1F770E0E0
:103170000E94FE7B362F335CFE01E00FF11F808141
:103180002FE38202C00111248456974E68E37FEF3B
:103190000E94FE7B262F215CEE20F9F0FF20E9F053
:1031A000642F70E0CB01019708171907B4F4C60F1C
:1031B000D71FC00FD11F21978881992787FD909530
:1031C00076E0880F991F7A95E1F78C59964E68EC56
:1031D00070E00E94FE7B362F335C832F922FDF91AD
:1031E000CF911F910F91FF90EF900895FF920F9351
:1031F0001F93F82E882311F41FE101C01DE000E0A9
:10320000FF2039F0812F0E94760DFC01E081E370F0
:1032100007C0812F0E94800DDC011496EC91EF73A2
:10322000E1110F5F115017FFEBCF802F1F910F910E
:10323000FF9008951F93182F0E94F618112319F478
:1032400020E230E002C02EE030E090E082179307E9
:1032500014F480E00CC0112319F480EE96E002C053
:1032600082ED96E090939E0780939D0781E01F91E9
:103270000895EF92FF920F931F93CF93DF93982FB0
:10328000EB01E42E8881442319F0182F115002C05D
:10329000182F1F5F992309F449C088810E94760D79
:1032A000F82E092F17FF08C0FC019181892F837028
:1032B00009F48EC08D5F0AC01E3069F4FC01918153
:1032C000892F8370833009F483C08F5F83709C7F64
:1032D000982B918347C0812F0E94760D682F592F1C
:1032E000AF2DB02FE82FF92F818111969C91119766
:1032F0008927837021F48081837009F058C011966A
:103300008C911197EE2031F0982F937009F460C0E2
:103310009D5F06C0982F9370933009F459C09F5F4A
:1033200093708C7F892B11968C931CC088810E948E
:10333000800DF82E092F17FF08C0FC019081892FFE
:103340008F7009F445C0815F09C0103269F4FC0137
:103350009081892F8F708F30D9F18F5F8F70907F20
:10336000982B908381E035C0812F0E94800D682FBB
:10337000592FAF2DB02F9C919F70E62FF52F848190
:103380008F7331F080818F70981711F449E010C06D
:10339000EE2021F09923E1F0915F03C09F30C1F04E
:1033A0009F5F9F708C91807F892B8C93DBCF44E053
:1033B0002F2D302FC901DC01262F352FC901FC012B
:1033C0009C9180818D9391934150D1F71883CACFFE
:1033D00080E0DF91CF911F910F91FF90EF900895C2
:1033E0009091A607982B9093A607F8948091CD040E
:1033F0009091CE0478949093A8078093A70708959E
:10340000EF92FF920F931F93062F7A010E946E0D89
:10341000DC0110E0FC01E00FF11FC70195958795D5
:10342000959587958083000F111F83E090E0002E13
:1034300002C0880F991F0A94E2F7809514962C9188
:103440001497822393E0E922FF2402C0EE0CFF1CB4
:103450000A95E2F78E0D14968C9382E00E94F01983
:103460001F910F91FF90EF9008951F920F920FB64A
:103470000F9211242F938F939F93EF93FF9380913B
:103480000108815080930108809101081816C4F446
:103490008091FD079091FE079FBB8EBBE091FF07D7
:1034A000F091000821912DBBE29AE19A0196909348
:1034B000FE078093FD07F0930008E093FF0701C02B
:1034C000E398FF91EF919F918F912F910F900FBEF5
:1034D0000F901F9018957093FE076093FD079093CF
:1034E00000088093FF074F5F40930108E39A8091A3
:1034F000FC07882311F40895A895809101081816F7
:10350000DCF308956093040D682F70E034E0660FDB
:10351000771F3A95E1F784E09DE041E050E00E949A
:103520006B1A08958EEB97E062E070E041E050E0A6
:103530000E946B1A089593E0899FB00111246C5F7B
:103540007F4FCB018454984F43E050E00E946B1AA8
:1035500008958CEB97E060E070E040E450E00E945A
:103560006B1A08951F93DF93CF9300D00F92CDB7BE
:10357000DEB7482F162F90E0FC01EE0FFF1FE80F7B
:10358000F91FDE011196E054F84F23E001900D92EF
:103590002150E1F7212F30E0DC01AA0FBB1FA80F5B
:1035A000B91FF901EE0FFF1FE20FF31FA054B84F30
:1035B000E054F84F83E001900D928150E1F7F9015A
:1035C000EE0FFF1FE20FF31FE054F84FDE011196DC
:1035D00083E00D9001928150E1F781E08093FC0738
:1035E000842F0E949B1A812F0E949B1A1092FC0725
:1035F0000F900F900F90CF91DF911F910895DC01F4
:103600006C9312961C921E92119770E0FB01EE0FC4
:10361000FF1FE60FF71FE454F84F848113968C9335
:10362000139714961C921092A90708950F931F9355
:103630008C010E94FF1AF801168215821F910F91CA
:103640000895DF92EF92FF920F931F937C01D62E85
:10365000142F022F61E10E94161B1092F40712959D
:10366000107F1093F507F701D0820093FC071F919C
:103670000F91FF90EF90DF9008958F5F90E0FC0135
:10368000EE0FFF1FE80FF91FE454F84F84818111FA
:1036900081E00895FF920F931F93A82FFA014F5FC7
:1036A0005F4F1491FA01849190E00796E3E09595BD
:1036B0008795EA95E1F7F82E01FF02C001E00EC000
:1036C00000FD02C000E00AC08091CD0490E076E0E9
:1036D000969587957A95E1F7082F01704F5F5F4FB8
:1036E000129FC00111242F2D30E0FC01E29FC00188
:1036F000E39F900DF29F900D1124480F591F66957E
:103700006695669570E07695762F6627779567952E
:103710006A0F711D90E0212F30E013C0DB01AC5F18
:10372000B74FFA0105C084910111809531968D93B0
:103730008E2F841B8117B8F3420F531F9F5F605871
:103740007F4F9F1558F31F910F91FF900895AF92EF
:10375000BF92CF92DF92EF92FF920F931F93CF937E
:10376000DF93382F562F622F70E020FF0BC080911F
:10377000CD0486FD02C0DD240BC021FFDCC0DD24AA
:10378000D39406C0CB0196958795DD24D394D82297
:10379000852F869586958695E82FF0E0F695FE2F85
:1037A000EE27F795E795E30FF11DDF01AC5FB74F0B
:1037B00062FF49C0842F8C528F3010F44B5211C0DD
:1037C000842F81548A3110F441530BC0842F8156C9
:1037D0008A3110F4475305C04F3511F040E001C065
:1037E00044E084E1489FA00111244C5F524F1BE04C
:1037F000687070706115710519F0123034F49BC057
:1038000012301CF430E0E0E00BC0EA012196FA012E
:103810008491AE014F5F5F4FFE019491382FE92FE5
:10382000DD2011F03095E095CD018F579F4F8450EA
:103830009C4030F43C93A058BF4FEC93AF57B0403E
:103840001150C0F678C063FD02C0BB240AC0DD2061
:1038500011F480E001C08FEFEC5FF74F8083BB2451
:10386000B39485E0489FE0011124C857D54FF7E095
:10387000CF2EC5221596EC2CFF242FEF30E0C90186
:103880000C2C02C0880F991F0A94E2F7A82EA0946E
:1038900008E010E00E191F09002E02C0359527958B
:1038A0000A94E2F7209536E080E060747070D110E1
:1038B0008095BB2011F03230B9F19CE0A430B907FB
:1038C00090F5482F50E0CA010E2C02C0880F991FB6
:1038D0000A94E2F7982F8C918A21892B8C93CC2023
:1038E00089F0FD01E058FF4F8CE0E430F80750F418
:1038F000002E02C0559547950A94E2F780818223F5
:10390000842B80836115710571F0DD2029F01196FB
:103910008C911197892304C011968C911197892B52
:1039200011968C93119711973150FE018491332396
:1039300011F02197BCCFDF91CF911F910F91FF9094
:10394000EF90DF90CF90BF90AF9008950F931F93AB
:10395000182F062FCA010E947E0C482F882311F0D1
:1039600022E001C020E0405D812F602F0E94A71B54
:103970001F910F91089520E00E94A71B08958F9238
:103980009F92AF92BF92CF92DF92EF92FF920F93EE
:103990001F93CF93DF93F82E962EEA01E22E802F0D
:1039A00090E030EAC32ED12CC822D92223E0822E07
:1039B00014E0A12EB12CA822B92231C080E2C81691
:1039C000D10429F0E0E8CE16D10441F402C01881F8
:1039D00007C088810E944E0D182F02C0FE0114916D
:1039E0001123F9F0FAE7FF15E0F0103290F08F2D77
:1039F000692D412F202F0E94A71B86E0F80E1C374F
:103A000011F4ECEFFE0EA114B10439F0F5E0FF0E55
:103A100004C0189DC0011124F80E2196EA94EE20EE
:103A200069F6F092040CDF91CF911F910F91FF90F6
:103A3000EF90DF90CF90BF90AF909F908F900895C0
:103A40000F93FA01422F24913196249FA001112453
:103A50004E0F5F1F0F750E94BF1C0F9108950F93AB
:103A6000022F2FEF0E94BF1C0F910895AC0180E040
:103A700060E022E00E942F1D089520E00E942F1D8B
:103A80000895982FAB0180E0692F0E943D1D089595
:103A9000AF92BF92CF92DF92EF92FF920F931F935C
:103AA000CF93DF93182FE62EA42EF22E862F66E3F7
:103AB00077E00E94411DB0909C07C0E0D0E0CF2C81
:103AC000DD244C2FBC1621F4002311F023E00CC0A0
:103AD000C6010C2E02C0959587950A94E2F780FDE9
:103AE00002C022E001C020E0405D812F6E2D0E94C7
:103AF000A71B2196C530D10511F01A5FE2CF002334
:103B0000A1F080918807882381F080E2A81669F4EB
:103B10001092880781E090E002C0880F991FBA9444
:103B2000E2F7F82682E00E94F0198F2DDF91CF9105
:103B30001F910F91FF90EF90DF90CF90BF90AF90CB
:103B40000895FC0141FF03C08081862B07C080815E
:103B500042FF03C06095862301C0862780830895B5
:103B6000562F962F969596959695292F30E0369557
:103B7000322F222737952795280F311D2C5F374F7D
:103B80008CE02430380758F4577061E070E002C0D0
:103B9000660F771F5A95E2F7C9010E94A11D08958B
:103BA000DF92EF92FF920F931F93CF93DF93382F03
:103BB000F42ED02E6034B8F5482F50E0CA018F0D96
:103BC000911D813891051CF0F0E8FF2EF31A862F25
:103BD000869586958695C82FD0E0D695DC2FCC2784
:103BE000D795C795C40FD51FCC5FD74F677081E0BD
:103BF00090E0E82E01C0EE0C6A95EAF712C0822F21
:103C000090E08C011595079520FF08C0CE016E2D20
:103C10004D2D0E94A11D202F206801C0202FFA9455
:103C20002196FF2061F7DF91CF911F910F91FF90B7
:103C3000EF90DF9008950F93022F2FEF0E94D01D79
:103C40000F910895782F522F87FD5AC047FF02C069
:103C5000640F419567FF02C0460F60E0842F9927EB
:103C600087FD9095262F332727FD3095820F931FD0
:103C70008134910514F040E4461B553511F460FF82
:103C80005AEA862F859585958595E82FFF27E7FDCC
:103C9000F095F695FE2FEE27F795E795E70FF11DC6
:103CA000EC5FF74F6770C1F081E090E0062E02C034
:103CB000880F991F0A94E2F7819585232081822736
:103CC0008083E058FF4F6850460F06C080818527EB
:103CD0008083E058FF4F48501416C4F3442381F00A
:103CE000485F71F0E058F04081E090E002C0880F3A
:103CF000991F4A95E2F78195852320812827208303
:103D000008952FEF0E94221E0895CF92DF92EF9226
:103D1000FF920F931F93CF93DF936C01162F8EE5C5
:103D2000861B60E040E42EEE0E94221E8EE3811B83
:103D300060E240E42EEE00E00E94D01D9DE3F92EEB
:103D4000F11A1FEFC0E0DCEF8FE3E82ECE01F601A1
:103D5000099580509C4F969587959C01B6E0220F5F
:103D6000331FBA95E1F7281B390B832F869586956B
:103D70000E2D081B1F3FC9F0802F992787FD9095B6
:103D8000811B91090196039730F48F2D612F42E03A
:103D90000E94B01D0AC060E0101708F061E0600FDB
:103DA000101B8F2D412F0E94811EA096F394102F7F
:103DB00084E0C032D80751F6DF91CF911F910F9167
:103DC000FF90EF90DF90CF900895BF92CF92DF9257
:103DD000EF92FF920F931F93182FB62ED42EF22E30
:103DE000C02E422F202F0E94221E812F81508D0D28
:103DF0006B2D4F2D202F0E94221EE3FC03C01F5F5E
:103E00008EEFD80E6B2D61506F0D812F4D2D2C2D07
:103E100000E00E94D01D812F6B2D4D2D2C2D0E9476
:103E2000D01D1F910F91FF90EF90DF90CF90BF902A
:103E300008959F92AF92BF92CF92DF92EF92FF923E
:103E40000F931F93CF93DF93A82E80916A04C82EFF
:103E5000DD24CC0CDD1CCC0CDD1CC0E0D0E06FE11F
:103E6000962E1C2FFE01EC0DFD1DEA56FE4FE4912F
:103E7000F0E0E45FFE4F00818A2D6C2F0E94D3108A
:103E80009C0183589F4F8B3F910518F05BE0B52E46
:103E900002C048E0B42E8FEF203938072CF434EEFE
:103EA000E32E3FEFF32E0DC02137310524F02CE136
:103EB000E22EF12C06C0C90164E070E00E94FE7B96
:103EC0007B01FE01E75FFE4F80818823D1F0802FC8
:103ED00064E046E30E94811E123021F4809181014A
:103EE00083FD0CC0802F81506EE143E00E94811E53
:103EF000802F8F5F6EE143E00E94811E692D6E1955
:103F000017C0802F8B516CE346E320E00E941B1EFC
:103F1000102F1150812F6BE343E020E00E941B1E05
:103F2000812F6DE343E020E00E941B1E0E0D6CE329
:103F30006350802F835047E027E00FEFEB2C0E9467
:103F4000E51E2196C430D10509F08BCFDF91CF91CA
:103F50001F910F91FF90EF90DF90CF90BF90AF90A7
:103F60009F900895AF92BF92CF92DF92EF920F93FE
:103F70001F93182F6B015A018B5061E247E127E133
:103F80000FEFEE240E94E51E812F6BE243E00E94BA
:103F9000811E812F81506CE243E020E00E941B1EB5
:103FA0001250C60161E770E00E94FE7B262FC5011A
:103FB0006FE87FEF0E94FE7B665D812F820F45E0F8
:103FC00025E0E8E0EE2E0E94E51E1F910F91EF9094
:103FD000DF90CF90BF90AF900895EF92FF920F9334
:103FE0001F93CF93DF9320916A04C22FD0E08E01FC
:103FF000000F111F000F111F0E5F1F4FF801EB562E
:10400000FE4F9491E92FF0E0EE0FFF1FE353FB4FBB
:10401000408151818091820187FF05C0933019F45E
:10402000509541955F4FE22FF0E0EE0FFF1FEE0F2E
:10403000FF1FEA56FE4FE491F0E0EE0FFF1FE3533F
:10404000FB4F608171818AE20E94B21F0A561E4FA7
:10405000F8019491E92FF0E0EE0FFF1FE353FB4FBF
:10406000408151818091820187FF05C0933019F40E
:10407000509541955F4FCC0FDD1FCC0FDD1FC7560C
:10408000DE4FFE018491E82FF0E0EE0FFF1FE353B7
:10409000FB4F6081718186E50E94B21FC7EDD4E0BD
:1040A000ABE3FA2EF8E3EF2E69917991882777FD3B
:1040B0008095982F26E130E040E050E00E94BF7BE1
:1040C0006050784A8F4F9F4F20E038E040E050E04A
:1040D0000E94337C122F1F5F0E2D011B8F2D8150EC
:1040E000602F412F0E94811E8F2D602F412F0E9433
:1040F000811E8F2D8F5F602F412F0E94811EF5E062
:10410000FF0E8AE4F81681F6DF91CF911F910F918F
:10411000FF90EF900895CF92DF92EF92FF920F936E
:104120001F93CF93DF93082F6BE7E62E64E0F62E04
:10413000E70110E0812F0E94B714BC014E855F8516
:104140009C01481759070CF49A013F872E874C8D24
:104150005D8D9B01641775070CF49A013D8F2C8FC0
:10416000143050F08E859F85820F931F62E070E0BF
:104170000E94FE7B798368831F5F22961730D1F6F9
:104180009091A50490938A07003229F00F3B39F4EF
:104190001092A50404C09F5F9093A5049150809154
:1041A000A504813071F0813030F08230A9F1833084
:1041B00009F08CC07EC088E165EA78E00E94411D6C
:1041C00087C0992311F420E001C022E080E060E183
:1041D00046EB58E00E942F1D88E16EEE75E00E94CC
:1041E000411D10E058E9C52E5AE3D52EC8E6D5EC9E
:1041F000D7011F96DC92CE921E975D96DC93CE93EC
:104200005C97812F0E94B714F701819391937F01EE
:104210001F5F173069F75CC0992311F420E001C0DB
:1042200022E080E060E14BEC58E00E942F1D88E125
:104230006EEE75E00E94411DCFE1D1E0D7011E96E0
:104240002D913C911F975C960D911C915D97C90132
:10425000801B910B97FF03C0909581959F4FC3974B
:10426000ECF0D701ED91FC91F983E883CF01821B3B
:10427000930B9C0160E470E00E94FE7B261B370BD1
:104280003F872E8798012E1B3F0BC90160E470E029
:104290000E94FE7B261B370B3D8F2C8FA2E0B0E0E7
:1042A000EA0EFB1E2296B9E8EB16B4E0FB0631F6E7
:1042B0000FC00E94FC0D90934A018093490181E058
:1042C0000E94F01984E08093A50402C01092A50416
:1042D0000E94ED1FDF91CF911F910F91FF90EF9002
:1042E000DF90CF9008958F929F92AF92BF92CF921E
:1042F000DF92EF92FF920F931F93CF93DF93882E5D
:10430000B62E942E102FAE2CC0E0D0E0E62EFF2467
:10431000E7FCF0946701C20ED11C15C06B2D6C0F29
:10432000882D492D212F0A2D0E94D01D812F90E02C
:104330009C01359527959695982F88279795879571
:10434000182F120F2196CE018E0D9F1D8C159D05E5
:104350002CF3DF91CF911F910F91FF90EF90DF90A1
:10436000CF90BF90AF909F908F900895EF92FF9263
:104370000F931F93182F85E998E1612F0E94851EE6
:1043800080E0F82EF3940E949A18692F882359F040
:104390006150811B43E023E00FEFF2E0EF2E0E941B
:1043A00073218F2DEECF1F910F91FF90EF90089505
:1043B000EF920F938AE060E14CE628E20FEFA4E071
:1043C000EA2E0E9473218AE060E14CE628E2EE24A6
:1043D0000E94E51E40919D0750919E0780E168E193
:1043E0000E943D1D0F91EF9008950F931F93182F7A
:1043F0001092A3070E94D82140919F075091A007D7
:104400004115510539F080E160E22091A10700E8F3
:104410000E94BF1C0091A207002319F040EE55E056
:1044200002C047EE55E080E168E20E943D1D103277
:1044300019F0113261F405C0002349F081E0809346
:10444000A30710929E0710929D071092A2071F913A
:104450000F910895EF920F931F93082FE62E122FBE
:10446000442321F08F5F43E20E94BB1C112349F0DB
:10447000802F6E2D47E027E00FEFEE240E9473217E
:1044800008C0802F6E2D47E027E00FEFEE240E943A
:10449000E51E1F910F91EF900895E82FFF27E7FD8C
:1044A000F095F695FE2FEE27F795E795EC5FF74F21
:1044B00090E08081809581939F5F9038D1F7089537
:1044C0001F93182F813221F08091A504843029F4A4
:1044D0008BE09EE40E9484180CC08EE160E048E20C
:1044E0005AE00E943D1D80E00E944D22812F0E94D3
:1044F0008B201F9108950F93942F022F915045E721
:1045000052E0292F0E94201D0F910895EF92FF92F3
:104510000F931F93082FF62E142FE22E442319F425
:1045200046E052E00AC0463121F44FEF51E021E06D
:1045300022C04A3E21F44FEF51E020E01CC047FF6B
:1045400006C0825048E02EE50E94221E11951731C8
:1045500064F01651163149F0E4FC07C0802F8E5EDE
:104560006F2D44E72E2D0E94A71B1150802F6F2D19
:1045700047E455E0212F0E2D0E94201D1F910F9121
:10458000FF90EF900895EF92FF920F931F93082FE3
:10459000F62E142FE22E47FF09C084E0841B182F4B
:1045A000802F865041E20E94A71B09C045303CF491
:1045B0004FEC55E0212F0E2D0E94201D0AC01A310C
:1045C0000CF01F5F1450802F6F2D412F2E2D0E9455
:1045D00086221F910F91FF90EF900895DF92EF9246
:1045E000FF920F931F93E82ED62EF42E122F842FB6
:1045F000622F0E94901021E0853F920764F0482FBF
:10460000455F4F1508F04F5F405D8E2D6D2D202FBB
:104610000E94A71B07C01F5F8E2D6D2D412F202FDD
:104620000E947B221F910F91FF90EF90DF900895E1
:10463000FC019081990F61119160908381818F5F5E
:1046400081838281882351F0992341F4833621F0BC
:10465000842F80628093050C11821282928198309F
:1046600089F1993050F49130B1F1913090F092305D
:1046700049F1943009F042C025C09F35C1F0903611
:1046800018F49031D9F51EC0913641F09236B1F54B
:104690002FC080818F3091F581E611C04066409334
:1046A000050C1092B5051092B4058FE508C0818104
:1046B000803211F4406819C0883201F580E18283AC
:1046C000118208958181803330F0892F90E0959593
:1046D000879582831182828190E00197218130E069
:1046E00082239323892B51F440644093050C089551
:1046F0008181803418F088E08283118208950F93BD
:104700001F93CF93DF9386B3809540E050E0C82F8E
:10471000D0E08A010F5F1F4FCA01880F991F840FD5
:10472000951FBE01002E02C0759567950A94E2F7A9
:10473000617070708A5F934F50E00E941823A80147
:104740000630110531F780B38095C6E0D0E0082F20
:1047500010E0FE01E957FB4EE4919E01220F331F4A
:104760002C0F3D1F2A5F334F60E08E2F90E0802397
:104770009123892B09F061E0C9014C2F50E00E9480
:1047800018232196CE30D10521F7DF91CF911F91CB
:104790000F9108958F718E3058F490E0FC01EE0F68
:1047A000FF1FE80FF91FEA5FF34F82E68283118251
:1047B00008958F718E3050F490E0FC01EE0FFF1FD2
:1047C000E80FF91FEA5FF34F83E6828308951F9392
:1047D000CF93DF93EC0180E00E94D92390919A0758
:1047E000992379F480E5C73FD80721F481E08093CD
:1047F00096070EC087E5CD3DD80751F41092960775
:1048000007C0E92FF0E0EA56F84F80919B078083BC
:10481000192F1F5F10939A0780E00E94030DE12F6C
:10482000F0E0EE0FFF1FE457F84FD183C0838FEB0A
:10483000FE010995DF91CF911F910895AF92BF922C
:10484000CF92DF92EF92FF920F931F93CF93DF935C
:10485000182F7B015A016901843651F0843441F0EC
:104860008091880718163CF4133611F0133419F4AC
:10487000E70121960CC0153641F0153431F01816B9
:1048800054F4123611F0123431F4E701219780E02C
:104890000E94030D01C0E701A114B10481F481E07D
:1048A000C816D10461F4103251F410928807C0E0A8
:1048B000D0E0E114F10491F4C1E0D0E00FC0CC16D7
:1048C000DD0614F4E60104C0CA15DB053CF4E5017D
:1048D000812F0E94D92382E00E94030DCE15DF05AF
:1048E00021F102FD15C0CC15DD0591F0CA15DB05DF
:1048F00079F0209739F08FEFCC39D80719F0C4360A
:10490000D10531F4812F0E94CA2380E00E94030D5B
:10491000802F83700E94F019EC16FD0614F08FEFC3
:1049200001C081E080938B0702C010928B07CE01FB
:10493000DF91CF911F910F91FF90EF90DF90CF907B
:10494000BF90AF9008956F927F928F92AF92CF9267
:10495000DF92EF92FF920F931F93DF93CF93CDB728
:10496000DEB7D82EF62E3901102F862FBA010E94FD
:10497000411D6114710441F0202F2E198D2D6F2DD2
:10498000A3010A2D0E94201DAA20B9F0809196074C
:10499000882311F001E001C002E0612F772767FD55
:1049A00070954E2D552747FD50952C2D332727FD0B
:1049B0003095882D0E941E24182F812FCF91DF91D2
:1049C0001F910F91FF90EF90DF90CF90AF908F905D
:1049D0007F906F9008958F92AF92BF92CF92DF92A7
:1049E000EF92FF920F931F93B82E162FF42E6901AA
:1049F000A02E8E2C862F642F4B2D202F0E942A2232
:104A0000812F6F2DA60120E030E00B2DEE24CC2469
:104A1000C3940E94A3241F910F91FF90EF90DF9009
:104A2000CF90BF90AF908F9008950F93772767FD39
:104A30007095552747FD5095332727FD309501E0A8
:104A40000E941E240F9108950F93772767FD70959C
:104A5000552747FD5095332727FD309502E00E94EA
:104A60001E240F910895DF92EF92FF920F931F93F0
:104A7000182FF62ED42EE22E862F67E976E00E94BC
:104A8000411D812F6F2D4D2D2E2D0E948622EE204F
:104A900039F0802F6D2D4BEE25E10E942425D82E74
:104AA0008D2D1F910F91FF90EF90DF900895242F8F
:104AB00040E00E9424250895BF92CF92DF92EF92AA
:104AC000FF920F931F93CF93DF93B82ED62EEA0158
:104AD000C22E102F862F64E476E00E94411DEE2046
:104AE00031F080918807181614F002E801C000E840
:104AF0008B2D6D2DAE012C2D0E94BF1CEE2009F4D4
:104B00006CC0E0909C0780918807181614F010E0A4
:104B100062C0FE01EE0DF11DF080812F82568230C1
:104B200030F0123421F0133411F00F2D18C06F2D16
:104B3000772767FD709577FF03C0709561957F4F6C
:104B4000772767FD7095812F40E050E028E230E044
:104B500000E00E941E24082F1F140CF0019515324E
:104B600051F0163218F4143201F50AC0812F84581E
:104B70008230D8F410C0EE20C1F01E2D115016C0A6
:104B80002E2D30E08C2D90E00197281739076CF41A
:104B90001E2D1F5F0BC0802F865E853330F401957C
:104BA000153819F485E00E94D9231E2DF01631F036
:104BB000C10FD11D088382E00E94F019802F0E944E
:104BC0004E0D482F86E0E89EC00111248B0D6D2DFF
:104BD00022E00E94A71B10939C07DF91CF911F91A9
:104BE0000F91FF90EF90DF90CF90BF900895EF92DC
:104BF000FF920F931F939B0190E0FC01EE0FFF1FAC
:104C0000E80FF91FEE0FFF1FDF01A85CBB4F6C918F
:104C100070E0DF01A35CBB4FAC91A295A695A69571
:104C2000A37002C0660F771FAA95E2F780E090E0BC
:104C3000660F771F881F991F442737FD4095542F13
:104C4000E75CFB4FE080E181FFE0FF2EFE2204E005
:104C5000EE0CFF1C0A95E1F714E0F594E7941A9521
:104C6000E1F70027F7FC0095102F2E0D3F1D401F88
:104C7000511F0E94BF7B23E330E040E050E00E94E0
:104C8000337CC9011F910F91FF90EF900895F89424
:104C90002091CD043091CE04789480917806909143
:104CA000790691FF42C08091C50C9091C60C6AE0D4
:104CB00070E00E94FE7BCB012FEF6C3972071CF471
:104CC0008CE99FEF05C06436710514F084E690E02E
:104CD000682F882319F44CE251E00EC087FF04C00E
:104CE000619581E080931A01772767FD709588ECC4
:104CF00090E00E94FE7BAB018091CD049091CE04A8
:104D00002091020D3091030D821B930B4817590718
:104D100080F48091CD049091CE049093030D809304
:104D2000020D81E08093160108953093030D2093C6
:104D3000020D08952091850C3091860C8091DF0C36
:104D40009091E00C8217930724F43093E00C2093A9
:104D5000DF0C8091DD0C9091DE0C2817390724F4CC
:104D60003093DE0C2093DD0C0895EF92FF920F93A9
:104D70001F939C01181619061CF0709561957F4FC2
:104D80007B0100E010E0B901882777FD8095982F1E
:104D900024E630E040E050E00E94BF7BE60EF71EC4
:104DA000081F191FE091CB0CEF5FE53008F0E0E041
:104DB000E093CB0C4091C50C5091C60CF0E0EE0F87
:104DC000FF1FE954F34F208131818091C10C9091F4
:104DD000C20CB701681B790BCB0171836083E09231
:104DE000C10CF092C20C0093C30C1093C40C840F3E
:104DF000951F821B930B9093C60C8093C50C1F913B
:104E00000F91FF90EF900895982F8EE78093430CB9
:104E10001092440C1092450C1092460C1092470CC4
:104E20001092480C809161018871803109F420E072
:104E30002093490C40934A0C6E3711F46EE503C081
:104E40006D3709F46DE560934B0C90934C0C8EE735
:104E500080934D0C8BE080934F0C559A08950F93DF
:104E60001F93CF93DF938091CD049091CE04019650
:104E70009093CE048093CD0480913D0590913E05A2
:104E8000009729F0019790933E0580933D0580910E
:104E90003F05882319F0815080933F058091890751
:104EA000882319F0815080938907809146058823D3
:104EB00019F081508093460586B3809540E050E01C
:104EC000C82FD0E08A010F5F1F4FCA01880F991FBA
:104ED000840F951FBE01002E02C0759567950A9438
:104EE000E2F7617070708A5F934F50E00E94182360
:104EF000A8010630110531F780B38095C6E0D0E0F7
:104F0000082F10E0FE01E957FB4EE4919E01220FAD
:104F1000331F2C0F3D1F2A5F334F60E08E2F90E030
:104F200080239123892B09F061E0C9014C2F50E0C7
:104F30000E9418232196CE30D10521F78091B30C21
:104F400082958F70482F50E090E020E030E006C05E
:104F5000ED5AF34F86A1280F311D9F5FE92FF0E036
:104F6000E417F507ACF3C90165E070E00E94EA7B45
:104F7000EB017093CE0C6093CD0C8091500C882384
:104F800009F488C08091B30C83FD75C0209144045E
:104F900022952695269523702230B0F4822F90E03A
:104FA000FC01EE0FFF1FEE0FFF1FE80FF91FED5A78
:104FB000F34F6081822F70E00E94F7256AE070E075
:104FC0000E94FE7BEB0106C0223021F4C091D70C79
:104FD000D091D80CE091B50CF091B60C2091610401
:104FE000277021502230A8F4822F90E0FC01EE0FB0
:104FF000FF1FEE0FFF1FE80FF91FED5AF34F6081FF
:10500000822F70E00E94F7256AE070E00E94FE7B2C
:10501000FB01CF0196958795D695C7959C012C9F4E
:10502000C0012D9F900D3C9F900D112469E170E00F
:105030000E94EA7B7093D40C6093D30C2091D10C26
:105040003091D20C2E0F3F1F3093D20C2093D10CF5
:105050008EE02031380778F08091CF0C9091D00C01
:1050600001969093D00C8093CF0C20513E4030930A
:10507000D20C2093D10C2091D30C3091D40C809180
:10508000ED0C9091EE0C8217930720F43093EE0C08
:105090002093ED0C80917706082F80FF09C0809146
:1050A000CD049091CE04882319F481E00E94030D71
:1050B00001FF0FC08091CD049091CE04803431F077
:1050C0008091CD049091CE04883419F481E00E943F
:1050D000030D02FF15C08091CD049091CE0480385D
:1050E00061F08091CD049091CE04883831F08091A8
:1050F000CD049091CE04803919F481E00E94030D13
:1051000080916904816080936904DF91CF911F9140
:105110000F91089578941F920F920FB60F92112459
:105120002F933F934F935F936F937F938F939F93AF
:10513000AF93BF93EF93FF9390911601992369F07A
:1051400080911801882329F49093180181E08093BD
:10515000190191509093160121C03091170133230A
:10516000B9F020911801222399F090E08091190163
:10517000882309F491E090931901992309F428E018
:1051800020931601992351F031503093170106C036
:10519000109218011092190110921A0180911901B0
:1051A000882381F080911A01882311F490E004C0D3
:1051B00090911B0181E0982790931B01992311F492
:1051C0001B9A01C01B980E942F278091100D8F5FA2
:1051D0008093100D90E083709070892B11F49DE9FD
:1051E00001C09CE981B7980F91BFFF91EF91BF91EA
:1051F000AF919F918F917F916F915F914F913F916F
:105200002F910F900FBE0F901F901895FC01808179
:10521000882311F4608312C022813381260F311D4F
:10522000338322838091520C882341F4A3E0369586
:105230002795AA95E1F7208313821282662331F025
:105240008181882311F0681708F4618308950F9312
:105250001F93CF93DF93EC01062F142F0E94062992
:10526000111108838C81882311F0801708F40C83B6
:10527000DF91CF911F910F910895482F50E0FA01CF
:10528000EA5BFB4F808185958595835D9A01220FAE
:10529000331F240F351F821B08951F93CF93DF9375
:1052A0006091EF0C662309F465C08091080181507C
:1052B00080930801882309F05DC085E08093080190
:1052C00080914F0C882309F055C0962F91509093F0
:1052D000EF0C192F10951170C12FD0E0943060F5AC
:1052E000969581E0891B90E0FC01EE0FFF1FE80F0F
:1052F000F91FEE0FFF1FDF01AC0FBD1FA55CBB4FF9
:10530000E35CFB4F2081422F4295437050E0012E19
:1053100002C0559547950A94E2F741702F7030E02E
:10532000CC0FDD1F02C035952795CA95E2F7237093
:10533000862F88506C911CC0812F0E943D29682FB8
:10534000FE01EA5BFB4F20812295220F220F207C79
:1053500026FB220F220B20F9332727FD30952E5FE5
:105360003F4F2C0F3D1F2370307087EF811B40E0B3
:105370000E9404278091510C882319F0815080935A
:10538000510C8091500C882321F081508093500C57
:105390000AC08DE59CE060E00E94062981E69CE061
:1053A00060E00E9406298091500C882311F00E9431
:1053B0004726DF91CF911F910895CF92DF92EF9210
:1053C000FF920F931F936B017A01861B970BAA27FD
:1053D00097FDA095BA2FBC01CD0123E630E040E057
:1053E00050E00E94BF7BEC18FD080027F7FC0095F9
:1053F000102FA80197010E94337C243608F024E680
:10540000822F1F910F91FF90EF90DF90CF90089522
:10541000A998AB98AC988BBBAD9AAD98AB9AA99A6A
:1054200008951F93182F81E80E94082A812F0E9457
:10543000082A1F91089580914C010E94112A089515
:105440001F93CF93DF9310E0C4E0D8E084E00E9484
:10545000082A80E10E94082A812F806B0E94082A76
:10546000A998AB9AAC98FE0190E881918BBBAD9A5C
:10547000AD989150D1F7C058DF4FAB9AA99A1F5FF2
:10548000183021F7DF91CF911F91089590939E07D7
:1054900080939D070E94D82110929E0710929D072D
:1054A0000E94202A08956F927F928F929F92AF92CE
:1054B000BF92CF92DF92EF92FF920F931F934C0116
:1054C0003B0180918B0C90918C0C64E670E00E9403
:1054D000FE7B5B016C01B601882777FD8095982FD4
:1054E00020E137E240E050E00E94BF7B9B01AC012D
:1054F00080919B0C90919C0CA0E0B0E0280F391F8C
:105500004A1F5B1FCA01B901F2E0660F771F881FAF
:10551000991FFA95D1F7620F731F841F951F23E01F
:1055200030E040E050E00E94117C79018A01CC24F7
:10553000B7FCC094DC2CC601B50120E432E44FE096
:1055400050E00E94BF7BE60EF71E081F191FF401F2
:10555000E082F182028313838091890C90918A0CFE
:1055600064E670E00E94FE7B5B016C01B601882757
:1055700077FD8095982F20E137E240E050E00E94CF
:10558000BF7B9B01AC018091990C90919A0CA0E09B
:10559000B0E0280F391F4A1F5B1FCA01B901E2E0C2
:1055A000660F771F881F991FEA95D1F7620F731F47
:1055B000841F951F23E030E040E050E00E94117C02
:1055C00079018A01CC24B7FCC094DC2CC601B5015A
:1055D00020E432E44FE050E00E94BF7BE60EF71E6D
:1055E000081F191FF301E082F182028313831F91C8
:1055F0000F91FF90EF90DF90CF90BF90AF909F9072
:105600008F907F906F9008956F927F928F929F926C
:10561000AF92BF92CF92DF92EF92FF920F931F93C0
:10562000DF93CF93CDB7DEB728970FB6F894DEBFE0
:105630000FBECDBF482F8E3519F481E090E019C020
:105640002091FE0C3091FF0C2115310509F4A0C307
:1056500027FF08C080E64827205830403093FF0CD1
:105660002093FE0C8091FE0C9091FF0C4D3531F48F
:1056700080689093FF0C8093FE0C8AC38130910563
:1056800081F4403428F01092FF0C1092FE0C80C37D
:10569000842F90E0880F991F8093010D82E090E0A5
:1056A000E8CF029729F44093000D83E090E0E1CF2A
:1056B0001092FF0C1092FE0C2091010D263289F4FD
:1056C0008091000D8823A9F4442399F43091B30C00
:1056D000832F8670823031F580918B0C90918C0CE9
:1056E00019C02432E9F48091000D882311F4442379
:1056F00039F08091B30C897F82608093B30C12C023
:105700003091B30C832F8670823061F48091890CC4
:1057100090918A0C029730F0397F3093B30C02C01D
:10572000223041F0822F8251853350F4203241F0F3
:10573000223431F08091B30C8670823009F028C396
:10574000622F772767FD7095FB01EB59F34F80912E
:10575000000D808341832E3209F4FFC22F32C0F442
:105760002C3009F4B5C22D3048F4263051F12A30DE
:1057700009F460C0243009F00BC34BC0203209F497
:10578000B4C0223209F493C2223109F001C3F2C03D
:105790002C3409F4F2C22D3450F4283409F4EDC24B
:1057A0002A3409F4EAC2223409F0F2C2CCC02A3603
:1057B00009F46EC0263709F471C0203509F0E8C23B
:1057C00056C06091440466956695637070E06E5FA4
:1057D0007F4F8CE390E00E94FE7B80916B0C909158
:1057E0006C0C689F9001699F300D789F300D1124DB
:1057F00030936C0C20936B0C8091E10C9091E20C37
:105800008217930708F0C4C23093E20C2093E10C96
:10581000BFC22091690C30916A0C8091E30C909189
:10582000E40C821793070CF0B3C23093E40C20937E
:10583000E30CAEC280916F0C9091700C90930308B2
:10584000809302086AE070E00E94FE7B7093700C07
:1058500060936F0C8091E50C9091E60C861797078A
:105860000CF096C27093E60C6093E50C91C2209107
:10587000B50C3091B60C8091EB0C9091EC0C82172A
:10588000930708F085C23093EC0C2093EB0C80C298
:105890008091B30C88608093B30C7AC22091DB0CAA
:1058A0003091DC0C82ED90E0AC01249FC001259F7B
:1058B000900D349F900D11244091D90C5091DA0C29
:1058C00024E338E0B901469F9001479F300D569F71
:1058D000300D1124820F931F6EE670E00E94EA7B68
:1058E0007093D80C6093D70C53C28091650C909143
:1058F000660C892B59F48091850C9091860C9095BB
:1059000081959F4F9093660C8093650C8091600405
:10591000877041F48091850C9091860C60E070E076
:105920000E94B5268091650C9091660C2091850CA3
:105930003091860C820F931F9093860C8093850C78
:105940000E949A2625C2809160048770813009F0F8
:105950001FC28091850C9091860C2091650C30912E
:10596000660C6091A70C7091A80C821B930B0E948F
:10597000B5260EC28091C90C9091CA0C892B59F49E
:105980008091670C9091680C909581959F4F9093B2
:10599000CA0C8093C90C2091C90C3091CA0C80911B
:1059A000670C9091680C280F391F3093680C209376
:1059B000670C8091650C9091660C892BB1F48091F5
:1059C000DF0C9091E00C8217930724F43093E00CE5
:1059D0002093DF0C8091DD0C9091DE0C28173907A5
:1059E00024F43093DE0C2093DD0C80919F0C909179
:1059F000A00CA091A10CB091A20C0097A105B1053B
:105A000009F072C08091A30C9091A40CA091A50CF8
:105A1000B091A60C0097A105B10509F065C08FE90A
:105A20009CE063EA7CE00E94532A60919F0C709195
:105A3000A00C8091A10C9091A20C20E137E240E0F3
:105A400050E00E94117CB901CA010E94BF7B20E195
:105A500037E240E050E00E94117CD22EC32EB42EDB
:105A6000A52E622F732F842F952F0E94BF7B29E1D3
:105A700030E040E050E00E94117C79018A0180E82A
:105A800096E9A8E9B0E0E80EF91E0A1F1B1F6D2D6C
:105A90007C2D8B2D9A2D2AEE31EE41E050E00E94B4
:105AA000BF7B21E530E040E050E00E94117CE21A2B
:105AB000F30A040B150BC801B70124ED30E340E0F5
:105AC00050E00E94117CCA01B9012BE830E040E0AF
:105AD00050E00E94BF7B6093730C7093740C8093B2
